{
  "_format": "hh-sol-artifact-1",
  "contractName": "CastersPixels",
  "sourceName": "contracts/CastersPixels.sol",
  "abi": [
    {
      "inputs": [
        {
          "internalType": "address",
          "name": "_casterToken",
          "type": "address"
        },
        {
          "internalType": "address",
          "name": "_lpWallet",
          "type": "address"
        }
      ],
      "stateMutability": "nonpayable",
      "type": "constructor"
    },
    {
      "anonymous": false,
      "inputs": [
        {
          "indexed": true,
          "internalType": "address",
          "name": "user",
          "type": "address"
        },
        {
          "indexed": false,
          "internalType": "bool",
          "name": "isLegendary",
          "type": "bool"
        },
        {
          "indexed": false,
          "internalType": "uint256",
          "name": "reward",
          "type": "uint256"
        }
      ],
      "name": "GenerationComplete",
      "type": "event"
    },
    {
      "anonymous": false,
      "inputs": [
        {
          "indexed": true,
          "internalType": "address",
          "name": "user",
          "type": "address"
        },
        {
          "indexed": false,
          "internalType": "uint256",
          "name": "blockNumber",
          "type": "uint256"
        }
      ],
      "name": "GenerationRequested",
      "type": "event"
    },
    {
      "anonymous": false,
      "inputs": [
        {
          "indexed": false,
          "internalType": "uint256",
          "name": "newAmount",
          "type": "uint256"
        }
      ],
      "name": "PrizePoolUpdated",
      "type": "event"
    },
    {
      "inputs": [],
      "name": "BLOCK_WAIT",
      "outputs": [
        {
          "internalType": "uint256",
          "name": "",
          "type": "uint256"
        }
      ],
      "stateMutability": "view",
      "type": "function"
    },
    {
      "inputs": [],
      "name": "GENERATION_COST",
      "outputs": [
        {
          "internalType": "uint256",
          "name": "",
          "type": "uint256"
        }
      ],
      "stateMutability": "view",
      "type": "function"
    },
    {
      "inputs": [],
      "name": "LEGENDARY_CHANCE",
      "outputs": [
        {
          "internalType": "uint256",
          "name": "",
          "type": "uint256"
        }
      ],
      "stateMutability": "view",
      "type": "function"
    },
    {
      "inputs": [],
      "name": "casterToken",
      "outputs": [
        {
          "internalType": "address",
          "name": "",
          "type": "address"
        }
      ],
      "stateMutability": "view",
      "type": "function"
    },
    {
      "inputs": [],
      "name": "completeGeneration",
      "outputs": [],
      "stateMutability": "nonpayable",
      "type": "function"
    },
    {
      "inputs": [],
      "name": "getPrizePool",
      "outputs": [
        {
          "internalType": "uint256",
          "name": "",
          "type": "uint256"
        }
      ],
      "stateMutability": "view",
      "type": "function"
    },
    {
      "inputs": [
        {
          "internalType": "address",
          "name": "",
          "type": "address"
        }
      ],
      "name": "hasPendingGeneration",
      "outputs": [
        {
          "internalType": "bool",
          "name": "",
          "type": "bool"
        }
      ],
      "stateMutability": "view",
      "type": "function"
    },
    {
      "inputs": [],
      "name": "lpWallet",
      "outputs": [
        {
          "internalType": "address",
          "name": "",
          "type": "address"
        }
      ],
      "stateMutability": "view",
      "type": "function"
    },
    {
      "inputs": [],
      "name": "prizePool",
      "outputs": [
        {
          "internalType": "uint256",
          "name": "",
          "type": "uint256"
        }
      ],
      "stateMutability": "view",
      "type": "function"
    },
    {
      "inputs": [],
      "name": "requestGeneration",
      "outputs": [],
      "stateMutability": "nonpayable",
      "type": "function"
    },
    {
      "inputs": [
        {
          "internalType": "address",
          "name": "",
          "type": "address"
        }
      ],
      "name": "userBlockNumber",
      "outputs": [
        {
          "internalType": "uint256",
          "name": "",
          "type": "uint256"
        }
      ],
      "stateMutability": "view",
      "type": "function"
    }
  ],
  "bytecode": "0x60c06040523480156200001157600080fd5b50604051620017ae380380620017ae8339818101604052810190620000379190620001f5565b600073ffffffffffffffffffffffffffffffffffffffff168273ffffffffffffffffffffffffffffffffffffffff1603620000a9576040517f08c379a0000000000000000000000000000000000000000000000000000000008152600401620000a0906200029d565b60405180910390fd5b600073ffffffffffffffffffffffffffffffffffffffff168173ffffffffffffffffffffffffffffffffffffffff16036200011b576040517f08c379a000000000000000000000000000000000000000000000000000000000815260040162000112906200030f565b60405180910390fd5b8173ffffffffffffffffffffffffffffffffffffffff1660a08173ffffffffffffffffffffffffffffffffffffffff16815250508073ffffffffffffffffffffffffffffffffffffffff1660808173ffffffffffffffffffffffffffffffffffffffff1681525050505062000331565b600080fd5b600073ffffffffffffffffffffffffffffffffffffffff82169050919050565b6000620001bd8262000190565b9050919050565b620001cf81620001b0565b8114620001db57600080fd5b50565b600081519050620001ef81620001c4565b92915050565b600080604083850312156200020f576200020e6200018b565b5b60006200021f85828601620001de565b92505060206200023285828601620001de565b9150509250929050565b600082825260208201905092915050565b7f496e76616c696420746f6b656e20616464726573730000000000000000000000600082015250565b6000620002856015836200023c565b915062000292826200024d565b602082019050919050565b60006020820190508181036000830152620002b88162000276565b9050919050565b7f496e76616c6964204c502077616c6c6574206164647265737300000000000000600082015250565b6000620002f76019836200023c565b91506200030482620002bf565b602082019050919050565b600060208201905081810360008301526200032a81620002e8565b9050919050565b60805160a05161142662000388600039600081816104320152818161050f0152818161075f01528181610828015281816109030152610a2a0152600081816102080152818161054b0152610a6601526114266000f3fe608060405234801561001057600080fd5b50600436106100a95760003560e01c8063813bd17211610071578063813bd17214610156578063827e227c14610160578063884bf67c1461017e5780639498624f1461019c578063e48b9623146101ba578063e8826363146101c4576100a9565b806313054d60146100ae578063426ea40c146100cc5780636303516c146100ea5780636981665b14610108578063719ce73e14610138575b600080fd5b6100b66101f4565b6040516100c39190610c9c565b60405180910390f35b6100d4610201565b6040516100e19190610c9c565b60405180910390f35b6100f2610206565b6040516100ff9190610cf8565b60405180910390f35b610122600480360381019061011d9190610d44565b61022a565b60405161012f9190610c9c565b60405180910390f35b610140610242565b60405161014d9190610c9c565b60405180910390f35b61015e610248565b005b61016861075d565b6040516101759190610cf8565b60405180910390f35b610186610781565b6040516101939190610c9c565b60405180910390f35b6101a461078a565b6040516101b19190610c9c565b60405180910390f35b6101c261078f565b005b6101de60048036038101906101d99190610d44565b610c63565b6040516101eb9190610d8c565b60405180910390f35b683635c9adc5dea0000081565b600181565b7f000000000000000000000000000000000000000000000000000000000000000081565b60026020528060005260406000206000915090505481565b60005481565b600160003373ffffffffffffffffffffffffffffffffffffffff1673ffffffffffffffffffffffffffffffffffffffff16815260200190815260200160002060009054906101000a900460ff166102d4576040517f08c379a00000000000000000000000000000000000000000000000000000000081526004016102cb90610e04565b60405180910390fd5b6001600260003373ffffffffffffffffffffffffffffffffffffffff1673ffffffffffffffffffffffffffffffffffffffff168152602001908152602001600020546103209190610e53565b4311610361576040517f08c379a000000000000000000000000000000000000000000000000000000000815260040161035890610ed3565b60405180910390fd5b6000600260003373ffffffffffffffffffffffffffffffffffffffff1673ffffffffffffffffffffffffffffffffffffffff168152602001908152602001600020544090506000606482336040516020016103bd929190610f66565b6040516020818303038152906040528051906020012060001c6103e09190610fc1565b905060006005821090506000811561066a576000606460326000546104059190610ff2565b61040f9190611034565b90506000606460146000546104249190610ff2565b61042e9190611034565b90507f000000000000000000000000000000000000000000000000000000000000000073ffffffffffffffffffffffffffffffffffffffff1663a9059cbb33846040518363ffffffff1660e01b815260040161048b929190611065565b6020604051808303816000875af11580156104aa573d6000803e3d6000fd5b505050506040513d601f19601f820116820180604052508101906104ce91906110ba565b61050d576040517f08c379a000000000000000000000000000000000000000000000000000000000815260040161050490611133565b60405180910390fd5b7f000000000000000000000000000000000000000000000000000000000000000073ffffffffffffffffffffffffffffffffffffffff1663a9059cbb7f0000000000000000000000000000000000000000000000000000000000000000836040518363ffffffff1660e01b8152600401610588929190611065565b6020604051808303816000875af11580156105a7573d6000803e3d6000fd5b505050506040513d601f19601f820116820180604052508101906105cb91906110ba565b61060a576040517f08c379a00000000000000000000000000000000000000000000000000000000081526004016106019061119f565b60405180910390fd5b8192506064601e60005461061e9190610ff2565b6106289190611034565b6000819055507f7bc22304ac771f50d6cc29b56387cb4855f284e7a1f83e6420fe9b8bbdaf45c960005460405161065f9190610c9c565b60405180910390a150505b6000600160003373ffffffffffffffffffffffffffffffffffffffff1673ffffffffffffffffffffffffffffffffffffffff16815260200190815260200160002060006101000a81548160ff0219169083151502179055506000600260003373ffffffffffffffffffffffffffffffffffffffff1673ffffffffffffffffffffffffffffffffffffffff168152602001908152602001600020819055503373ffffffffffffffffffffffffffffffffffffffff167f0295c68724bd2b98a38380b0853cf56bd1c8d3841ffa31b2322049be321d12f4838360405161074f9291906111bf565b60405180910390a250505050565b7f000000000000000000000000000000000000000000000000000000000000000081565b60008054905090565b600581565b600160003373ffffffffffffffffffffffffffffffffffffffff1673ffffffffffffffffffffffffffffffffffffffff16815260200190815260200160002060009054906101000a900460ff161561081c576040517f08c379a000000000000000000000000000000000000000000000000000000000815260040161081390611234565b60405180910390fd5b683635c9adc5dea000007f000000000000000000000000000000000000000000000000000000000000000073ffffffffffffffffffffffffffffffffffffffff166370a08231336040518263ffffffff1660e01b815260040161087f9190610cf8565b602060405180830381865afa15801561089c573d6000803e3d6000fd5b505050506040513d601f19601f820116820180604052508101906108c09190611280565b1015610901576040517f08c379a00000000000000000000000000000000000000000000000000000000081526004016108f8906112f9565b60405180910390fd5b7f000000000000000000000000000000000000000000000000000000000000000073ffffffffffffffffffffffffffffffffffffffff166323b872dd3330683635c9adc5dea000006040518463ffffffff1660e01b815260040161096793929190611319565b6020604051808303816000875af1158015610986573d6000803e3d6000fd5b505050506040513d601f19601f820116820180604052508101906109aa91906110ba565b6109e9576040517f08c379a00000000000000000000000000000000000000000000000000000000081526004016109e09061139c565b60405180910390fd5b600060646028683635c9adc5dea00000610a039190610ff2565b610a0d9190611034565b9050600081683635c9adc5dea00000610a2691906113bc565b90507f000000000000000000000000000000000000000000000000000000000000000073ffffffffffffffffffffffffffffffffffffffff1663a9059cbb7f0000000000000000000000000000000000000000000000000000000000000000846040518363ffffffff1660e01b8152600401610aa3929190611065565b6020604051808303816000875af1158015610ac2573d6000803e3d6000fd5b505050506040513d601f19601f82011682018060405250810190610ae691906110ba565b610b25576040517f08c379a0000000000000000000000000000000000000000000000000000000008152600401610b1c9061119f565b60405180910390fd5b80600080828254610b369190610e53565b9250508190555060018060003373ffffffffffffffffffffffffffffffffffffffff1673ffffffffffffffffffffffffffffffffffffffff16815260200190815260200160002060006101000a81548160ff02191690831515021790555043600260003373ffffffffffffffffffffffffffffffffffffffff1673ffffffffffffffffffffffffffffffffffffffff168152602001908152602001600020819055503373ffffffffffffffffffffffffffffffffffffffff167f8e2ba208d8e2df2355ddc6450d402801819fc7d9fe7bd91c1b8f16afbcd3d67143604051610c1e9190610c9c565b60405180910390a27f7bc22304ac771f50d6cc29b56387cb4855f284e7a1f83e6420fe9b8bbdaf45c9600054604051610c579190610c9c565b60405180910390a15050565b60016020528060005260406000206000915054906101000a900460ff1681565b6000819050919050565b610c9681610c83565b82525050565b6000602082019050610cb16000830184610c8d565b92915050565b600073ffffffffffffffffffffffffffffffffffffffff82169050919050565b6000610ce282610cb7565b9050919050565b610cf281610cd7565b82525050565b6000602082019050610d0d6000830184610ce9565b92915050565b600080fd5b610d2181610cd7565b8114610d2c57600080fd5b50565b600081359050610d3e81610d18565b92915050565b600060208284031215610d5a57610d59610d13565b5b6000610d6884828501610d2f565b91505092915050565b60008115159050919050565b610d8681610d71565b82525050565b6000602082019050610da16000830184610d7d565b92915050565b600082825260208201905092915050565b7f4e6f2070656e64696e672067656e65726174696f6e0000000000000000000000600082015250565b6000610dee601583610da7565b9150610df982610db8565b602082019050919050565b60006020820190508181036000830152610e1d81610de1565b9050919050565b7f4e487b7100000000000000000000000000000000000000000000000000000000600052601160045260246000fd5b6000610e5e82610c83565b9150610e6983610c83565b9250828201905080821115610e8157610e80610e24565b5b92915050565b7f4d757374207761697420666f7220626c6f636b73000000000000000000000000600082015250565b6000610ebd601483610da7565b9150610ec882610e87565b602082019050919050565b60006020820190508181036000830152610eec81610eb0565b9050919050565b6000819050919050565b6000819050919050565b610f18610f1382610ef3565b610efd565b82525050565b60008160601b9050919050565b6000610f3682610f1e565b9050919050565b6000610f4882610f2b565b9050919050565b610f60610f5b82610cd7565b610f3d565b82525050565b6000610f728285610f07565b602082019150610f828284610f4f565b6014820191508190509392505050565b7f4e487b7100000000000000000000000000000000000000000000000000000000600052601260045260246000fd5b6000610fcc82610c83565b9150610fd783610c83565b925082610fe757610fe6610f92565b5b828206905092915050565b6000610ffd82610c83565b915061100883610c83565b925082820261101681610c83565b9150828204841483151761102d5761102c610e24565b5b5092915050565b600061103f82610c83565b915061104a83610c83565b92508261105a57611059610f92565b5b828204905092915050565b600060408201905061107a6000830185610ce9565b6110876020830184610c8d565b9392505050565b61109781610d71565b81146110a257600080fd5b50565b6000815190506110b48161108e565b92915050565b6000602082840312156110d0576110cf610d13565b5b60006110de848285016110a5565b91505092915050565b7f57696e6e6572207472616e73666572206661696c656400000000000000000000600082015250565b600061111d601683610da7565b9150611128826110e7565b602082019050919050565b6000602082019050818103600083015261114c81611110565b9050919050565b7f4275726e207472616e73666572206661696c6564000000000000000000000000600082015250565b6000611189601483610da7565b915061119482611153565b602082019050919050565b600060208201905081810360008301526111b88161117c565b9050919050565b60006040820190506111d46000830185610d7d565b6111e16020830184610c8d565b9392505050565b7f416c7265616479206861732070656e64696e672067656e65726174696f6e0000600082015250565b600061121e601e83610da7565b9150611229826111e8565b602082019050919050565b6000602082019050818103600083015261124d81611211565b9050919050565b61125d81610c83565b811461126857600080fd5b50565b60008151905061127a81611254565b92915050565b60006020828403121561129657611295610d13565b5b60006112a48482850161126b565b91505092915050565b7f496e73756666696369656e74204341535445522062616c616e63650000000000600082015250565b60006112e3601b83610da7565b91506112ee826112ad565b602082019050919050565b60006020820190508181036000830152611312816112d6565b9050919050565b600060608201905061132e6000830186610ce9565b61133b6020830185610ce9565b6113486040830184610c8d565b949350505050565b7f5472616e73666572206661696c65640000000000000000000000000000000000600082015250565b6000611386600f83610da7565b915061139182611350565b602082019050919050565b600060208201905081810360008301526113b581611379565b9050919050565b60006113c782610c83565b91506113d283610c83565b92508282039050818111156113ea576113e9610e24565b5b9291505056fea264697066735822122076167a1506a95f920289e8aedb976e93389fb6b2bfd02c870a8b34c998ba52fe64736f6c63430008130033",
  "linkReferences": {},
  "deployedLinkReferences": {}
}